:020000040800F2
:1000000058280020B90200082D2F0008712A000886
:10001000292F000891200008AD4A000800000000C8
:100020000000000000000000000000002541000862
:10003000BD23000800000000153B00083144000803
:10004000D3020008D3020008D3020008D30200083C
:10005000D3020008D3020008D3020008D30200082C
:10006000D3020008D3020008D3020008D30200081C
:10007000D3020008D3020008D3020008D30200080C
:10008000D3020008D3020008D3020008D3020008FC
:10009000D3020008D3020008D3020008D3020008EC
:1000A000D3020008D3020008D3020008D3020008DC
:1000B00095440008D302000885450008D3020008D3
:1000C000D3020008D3020008D3020008D3020008BC
:1000D000D30200088D4700089D470008AD4700087F
:1000E000C1230008D3020008D3020008D30200088D
:1000F000D3020008D3020008D3020008D30200088C
:10010000D3020008D3020008D3020008D30200087B
:10011000D3020008D3020008D3020008D30200086B
:10012000D3020008D3020008D3020008D30200085B
:1001300000F002F800F0B0F80AA090E8000C824449
:100140008344AAF10107DA4501D100F0A5F8AFF226
:10015000090EBAE80F0013F0010F18BFFB1A43F0A5
:1001600001031847C0790000E07900000A444FF00D
:10017000000C10F8013B13F0070408BF10F8014B06
:100180001D1108BF10F8015B641E05D010F8016B4B
:10019000641E01F8016BF9D113F0080F1EBF10F8AF
:1001A000014BAD1C0C1B09D16D1E58BF01F801CBD2
:1001B000FAD505E014F8016B01F8016B6D1EF9D555
:1001C0009142D6D37047000000230024002500266A
:1001D000103A28BF78C1FBD8520728BF30C148BFAA
:1001E0000B6070476E2900F0B583702900F0138111
:1001F000662907F0A981652907F0A681672907F01C
:10020000A3816129AFF3008003681B0A28BF41F076
:100210008001692900F06283642900F05F837529F9
:1002200000F05C836F2900F08584782900F0DF807E
:10023000E92900F01F84E42900F01C84F52900F06E
:100240001984EF2900F08284F82900F0DE80036829
:10025000DB0928BF41F08001632900F0538773292F
:1002600000F05887E32900F06387F32900F06887DE
:10027000002070471FB500F0FBFF040000200021A4
:1002800007F036F9401C60600020002107F046F9B5
:10029000E0601FBD10B510BD00F0C5FF1146FFF7AF
:1002A000E9FF05F0EBFB01F0A3F803B4FFF7F2FF61
:1002B00003BC01F0E3F80000094880470948004703
:1002C000FEE7FEE7FEE7FEE7FEE7FEE7FEE7FEE706
:1002D000FEE7FEE704480549054A064B7047000063
:1002E0003544000831010008582200205828002019
:1002F00058240020582400201CB50C46064B7B4493
:1003000069460090204600F03EFB04460020694606
:1003100000F04CFB20461CBDAB0600000FB41CB522
:10032000084B06AA7B4469460090059800F02BFB19
:1003300004460020694600F039FB20461CBC5DF8ED
:1003400014FB00008506000070B50446856900684E
:10035000C10601D5302600E02026C00707D070BDB9
:10036000D4E9012130469047206A401C20626D1E6E
:10037000F6D570BD70B5044685690078C00707D111
:1003800070BDD4E9012120209047206A401C2062E2
:100390006D1EF6D570BD0000F0B40D46018809054C
:1003A00002D5214C7C4402E01F4C7C440E340021D9
:1003B00000F1240608E002F00F071209E75D42EAA7
:1003C00003721B097754491C52EA0307F3D10278E0
:1003D0000023120704D5702D06D009B10223113471
:1003E0002246F0BC00F021BA01231034F8E770B5C2
:1003F00004460D462146106800F0E5F902462946FC
:100400002046BDE870400023C6E7D21D22F0070356
:10041000D3E90023C0E70368126843F020030360B8
:100420000823C3610023B7E7D87100002DE9F05F0E
:10043000894604464FF0000ADFF874B1FB44C0F867
:1004400020A02046E1688847002874D0252806D0DF
:10045000D4E901219047206A401C2062F1E7002680
:100460005F462046E16888472028054607DB312D96
:1004700005D2781910F8200C08B10643F1E7B0074F
:1004800001D526F00406C4F81CA00027C4F818A063
:100490002A2D09D0284604F0D9FB38B304EB87088D
:1004A000303DC8F8185019E059F8041B204604EBF9
:1004B00087029161E1688847012F054618D1E069FC
:1004C000002820DA26F020061DE0D8F8180000EBFE
:1004D000800005EB40003038C8F818002046E1687D
:1004E0008847054604F0B2FB0028EED1012F0AD060
:1004F0002E2D08D12046E16888477F1C0546022F33
:1005000046F02006C4DBA069002803DA404246F02A
:100510000106A061F00701D026F010066C2D0BD06B
:10052000682D09D04C2D39D06A2D35D0742D35D099
:100530007A2D33D016E038E0E1682F462046884710
:10054000B842054609D16C2F26D04FF48060E1688F
:10055000064320468847054604E06C2F1AD04FF426
:10056000807006430DB3A5F14100192802D820354B
:1005700046F400664A462946204626604E46FFF766
:1005800031FE80B101280BD0F61D26F0070000F1E6
:10059000080956E74020E4E78020D8E70020D6E7A6
:1005A00006F104094DE7284652E7206ABDE8F09FAE
:1005B0006871000070B5064600F0F8F8046805465A
:1005C00030460A22002100F0CBFA2C6070BD30B515
:1005D00005460B462A4613F8014B12F8010B08B1E9
:1005E000A042F8D01CB1002802D06D1CF1E72846CB
:1005F00030BD40EA010310B59B070FD1042A0DD38B
:1006000010C808C9121F9C42F8D020BA19BA8842F3
:1006100001D9012010BD4FF0FF3010BD1AB1D30732
:1006200003D0521C07E0002010BD10F8013B11F868
:10063000014B1B1B07D110F8013B11F8014B1B1B91
:1006400001D1921EF1D1184610BD10B5431C02E035
:1006500010F8011B71B18107FAD14FF0013202C8C5
:100660008C1A8C4314EAC211F9D0C01A0A0603D0BE
:10067000C01E10BDC01A10BD0A0401D0801E10BDDE
:100680000902FCD0401E10BD032A40F2308010F059
:10069000030C00F0158011F8013BBCF1020F62441D
:1006A00098BF11F801CB00F8013B38BF11F8013BAE
:1006B000A2F1040298BF00F801CB38BF00F8013B5B
:1006C00011F0030300F08482083AC0F0088051F86A
:1006D000043B083A51F804CBA0E80810F5E7121DD6
:1006E0005CBF51F8043B40F8043BAFF30080D207F5
:1006F00024BF11F8013B11F801CB48BF11F8012BC1
:1007000024BF00F8013B00F801CB48BF00F8012BE3
:1007100070474FF000020429C0F0128010F0030C63
:1007200000F01B80CCF1040CBCF1020F18BF00F8E4
:10073000012BA8BF20F8022BA1EB0C0100F00DB893
:100740005FEAC17C24BF00F8012B00F8012B48BFF1
:1007500000F8012B70474FF0000200B51346944695
:100760009646203922BFA0E80C50A0E80C50B1F109
:100770002001BFF4F7AF090728BFA0E80C5048BF1D
:100780000CC05DF804EB890028BF40F8042B08BFBB
:10079000704748BF20F8022B11F0804F18BF00F8B7
:1007A000012B704770477047704700000048704742
:1007B000F421002009684A0501D540B27047C905F7
:1007C000FCD500B2704709684A0501D5C0B2704730
:1007D000C905FCD580B2704770B50C460546012AA4
:1007E00005D02878800600D5EA69002302E00123BD
:1007F00005E05B1C934202D2E05C0028F9D1A869B5
:10080000E618C01AA861286A184428622846FFF72B
:100810009BFD04E0D5E9012114F8010B9047B44297
:10082000F8D32846FFF7A6FD70BD2DE9F0470D4629
:1008300099469246044600F124080168880604D5CA
:10084000E06921F01001216000E00120A84201DDF3
:10085000471B00E00027A1697A1902EB0900081A7A
:10086000A0612078C00602D42046FFF76DFD002667
:1008700008E0D4E901211AF806009047206A401CDC
:10088000761C20624E45F4DB2078C0060AD520464F
:10089000FFF75AFD06E0D4E9012130209047206A95
:1008A000401C2062381EA7F10107F4DC07E0D4E900
:1008B000012118F805009047206A401C2062281E7C
:1008C000A5F10105F3DC2046FFF754FD2078000672
:1008D00002D50220BDE8F0870120FBE72DE9F041B9
:1008E0000646002410687529314616A510D0FFF77A
:1008F00061FF002802DA404213A507E031688A0749
:1009000001D512A502E0490704D511A5012401E093
:10091000FFF759FF00210A2206F1240709E0B0FB86
:10092000F2FCB0FBF2F302FB1C00303078541846A6
:10093000491C0028F3D123462A463046BDE8F04141
:10094000FFF773BF000000002D0000002B00000027
:100950002000000011680268006A530501D5087084
:100960000AE0D30501D5088006E0130603D5C217B7
:10097000C1E9000200E008600120704701694A1CDB
:1009800002610878704700B58FB0CDE901310021D0
:10099000059105497944CDE9031011466846FFF7F2
:1009A00045FD0FB000BD0000E5FFFFFF0A6802F83B
:1009B000010B0A60704700002DE9FF5F15468A466B
:1009C0000446DFF8AC80F8440027D8E900103E4622
:1009D000CDE9001010E03AF816106A4602A800F0BF
:1009E00002FC411C07D02178890603D5E269391839
:1009F00091420DD80744761C2078800602D5E06924
:100A0000B84205DDAE42E6DB3AF816000028E2D136
:100A1000A069C01BA0612046FFF796FCD8E9001032
:100A2000CDE90010002017E03AF818106A4602A835
:100A300000F0D9FBB0F1FF3F81460BD000250DF14E
:100A4000080B05E0D4E901211BF8050090476D1C57
:100A50004D45F7D308F10100B0428046E4DB206A3F
:100A6000384420622046FFF785FCBDE8FF9F000068
:100A7000F26B00002DE9F0418046D21D22F0070202
:100A80000025D2E90002F52915A614D0011E72F145
:100A9000000106DA0023D0EB030063EB020211A68B
:100AA00008E0D8F800108B0701D50FA602E049072F
:100AB00001D50EA601251146002408F1240704E003
:100AC00000F0C4F830323A55641C50EA0102F7D104
:100AD0002B46324621464046BDE8F041FFF7A5BE11
:100AE000000000002D0000002B000000200000008E
:100AF00030B4002100F1240408E002F00705D20818
:100B0000303542EA4372DB086554491C52EA03055A
:100B1000F3D10468002310A2250708D504F02004AF
:100B20000C4304D0C46901230CA2641EC46130BC10
:100B3000FFF77BBE10B5044621461068FFF743FE61
:100B400002462046BDE810400023D1E7D21D22F026
:100B50000701D1E90023CBE70000000030000000CE
:100B60002DE9F04791460F4680460446002614F8CA
:100B7000015B2DB100F062F80068405DC007F6D15E
:100B80002B2D02D02D2D18D0641E4A463946204602
:100B900000F0DAFA27B13968A14201D1C7F8008024
:100BA0004FF0020471050BD54042002803DDFFF72A
:100BB000FDFD0460A007BDE8F08746F48066E4E729
:100BC0000028F8DAFFF7F2FD04606FF00040F2E76A
:100BD00010B5203AC0F00B80B1E81850203AA0E8D8
:100BE0001850B1E81850A0E81850BFF4F5AF5FEA0C
:100BF000027C24BFB1E81850A0E8185044BF18C9BF
:100C000018C0BDE810405FEA827C24BF51F8043B65
:100C100040F8043B08BF7047D20728BF31F8023BB9
:100C200048BF11F8012B28BF20F8023B48BF00F84D
:100C3000012B704700487047F421002010B500F0E8
:100C400017FB001D10BD00BFA968000030B5B0F152
:100C50000A024FEA900E71F100034EEA817EB0EB7A
:100C60000E0061EB91014FEA101E4EEA017E10EB7F
:100C70000E0041EB11114FEA102E4EEA016E10EBFF
:100C80000E0041EB11214FEA104E4EEA014E10EBDF
:100C90000E0041EB1141401841F100014FEAD00034
:100CA00040EA41704FEAD10110EB80054FEA810420
:100CB00044EA907444EB01046D1944EB0404521BA4
:100CC000A3414FF0000348BF0A3200D530BD401C9D
:100CD00041F1000130BD70472DE9FF4F0C461E4623
:100CE0004FF0FF378BB0D2E90001DDF860800A9049
:100CF0008A46C1F30A5505B93D46002108464FF022
:100D00000000BAF1000F00F4400005DA00EB8000AB
:100D10004FF4400101EA50004FEA9059B9F1010F38
:100D200000DDB9460A9850EA4A000ED044F6105049
:100D3000A5F2FF3545432F14B8F1000F1ED07542C0
:100D4000291E1EDDC9F100021CE0B8F1010F4FF0B1
:100D5000000001D0302103E0F24305E02154401CA3
:100D6000B042FBDB30460022002121540B99C1F830
:100D70000880C1E900200FB0BDE8F08FBD1B6D1CDD
:100D8000DEE74A4600DA694206A800F0C3FA06AB7D
:100D900093E8070003AB83E8070050460A9900F088
:100DA00074FB8DE80700A0F500501F3800900398F1
:100DB000002D09DD42F21F014A46084403A90390B1
:100DC000684600F0D3FD08E0A0F500504A461F3801
:100DD00003A90390684600F0DDFD8DE807000004DC
:100DE000000C03D04FF0FF30410800E01046B8F18E
:100DF000000F03D00022009215461EE0751E05D498
:100E0000FFF724FF303262556D1EF9D5B34601223B
:100E1000084302D000227F1C04E02078302801D152
:100E200000227F1E002A099786D01DE0112D07DAC7
:100E3000FFF70CFF303262556D1C50EA0102F5D10C
:100E4000084302D00098C8B10EE00021681E05E0FA
:100E5000235C625C63542254401E491C8142F7DBD0
:100E6000AB46A81B401E0990002004F80B000B980D
:100E7000099AC0F80880C0E9002B7CE711264FF0E2
:100E8000000859E72DE9F04F88460446D21D22F0AC
:100E9000070191B0D1E90001CDE90A0103F0C2FEDA
:100EA00002460B98C00F01D02D2007E02068810773
:100EB00001D52B2002E0202101EAC000032A09907D
:100EC00001D0072A05DB03464146204600F0D4F94D
:100ED0000BE12078800601D5E06900E00620B8F13A
:100EE000650F814606D0B8F1660F18D0B8F1670FCC
:100EF00070D131E00020B9F1110F009001DB112316
:100F000001E009F101030AAA01A90CA8FFF7E4FE18
:100F1000DDE90C70002609F10105834647E0012058
:100F20004B4600904FF000470AAA01A90CA8FFF712
:100F3000D3FEDDE90DB00C995D46002610B909F12C
:100F400001000D18B9EB050003D4C0F1FF3609F11B
:100F50000105A5EB09002BE0B9F1010F01DA4FF013
:100F600001090020B9F1110F0090484601DD11235D
:100F700000E003460AAA01A90CA8FFF7ADFEDDE9CF
:100F80000C704D4600268346207800070AD4AB45F6
:100F900000DA5D4601A8012D04DD411911F8011C9C
:100FA000302907D04F4502DA17F1040F04DA012087
:100FB00082460FE06D1EEEE7002F02DCED1B3E4483
:100FC00003E0781CA84200DD7D1CB81B00F1010A7B
:100FD0004FF000472078000703D4AA4501DB4FF00B
:100FE000FF3A0021B7F1004F0DF143088DF843108F
:100FF00024D002202B23002F01DA7F422D230A2147
:10100000021EA0F1010000DC5FB197FBF1FC97FB31
:10101000F1F201FB1C7C17460CF1300C08F801CDF5
:10102000EEE7A8F1010003702188090501D54521EB
:1010300000E06521A0F1010800F8011C09980FA942
:10104000A1EB0807FF1D00B10120411901EBEA7077
:10105000A1693844081A401EA0612078C00602D455
:101060002046FFF771F9099828B1D4E9012190478A
:10107000206A401C20622078C00622D52046FFF757
:1010800063F91EE0002E04DBB34502DD01A8805D9C
:1010900000E03020D4E901219047206A401C206202
:1010A000761CAAF101005FEA000A0AD100F0E0F81C
:1010B000C0680168405CD4E901219047206A401C67
:1010C0002062281EA5F10105DCDC07E0D4E901213E
:1010D00018F8010B9047206A401C2062381EA7F1C7
:1010E0000107F3DC2046FFF745F9032011B043E682
:1010F00010B5436913B1AFF3008001E0FFF76CFB5B
:10110000012010BD127800F124010A7000224A70FB
:101110000122EDE711684FF0FF32E9E710B54369AE
:1011200013B1AFF3008001E0FFF746FC012010BDD2
:10113000128800F1240182840022C2840122EDE79A
:1011400011684FF0FF32E9E72DE9F05F824615465E
:101150008B4600270AF10104B9460078302801D0F7
:101160009DB113E014F8010B0127782803D058280B
:1011700001D045B10AE00DB1102D07D1002714F8B8
:10118000010B102502E0082500E00A250026B046E4
:101190000EE005FB080005FB06F101271FFA80F8A9
:1011A00001EB1046B6F5803F00D3B94614F8010BA9
:1011B000294600F0A1F80028EBDABBF1000F05D0BA
:1011C0000FB1641E00E05446CBF80040B9F1000FA7
:1011D00006D0FFF7EBFA02210160C81EBDE8F09FC0
:1011E00048EA0640FAE770B516460C460546FFF792
:1011F00025FD036893F80101012806D0FF2C0FD8C4
:10120000185D68B101202C7070BDD3F8070132461B
:10121000214603F2071303442846BDE870401847EF
:101220004FF0FF3070BD7546FFF704FDAE46050078
:101230006946534620F00700854618B020B5FFF7F1
:1012400049F8BDE820404FF000064FF000074FF08E
:1012500000084FF0000B21F00701AC46ACE8C009D4
:10126000ACE8C009ACE8C009ACE8C0098D467047DD
:1012700000487047142200202DE9F0411F46044623
:1012800003260168072A01F4006004DB08B116A5F3
:1012900005E016A503E008B115A500E015A521F0AD
:1012A00010002060A069C01EA0610FB1401EA061A7
:1012B0002046FFF749F84FB1D4E90121384690475D
:1012C000206A401C2062C01C206206E0206AFAE707
:1012D000D4E9012115F8010B9047761EF8D220467B
:1012E000FFF748F8BDE8F0814E414E006E616E0098
:1012F000494E4600696E66003A2800D2303820F028
:101300002002412A01D3A2F13700884201D34FF0D5
:10131000FF3070472DE9F047814616468AB03348C2
:1013200078440DC88DE80D0030487844801C03AC2B
:101330000DC884E80D0041F69B300844372190FB2E
:10134000F1F290FBF1F5A5F1800501FB12041B3CC5
:1013500002D56442012000E00020DFF890A0804622
:101360000027FA44AAF1BE0A0DE0E00709D0324690
:10137000684607EB47010AEB810100F00BFB8DE8A3
:10138000070064107F1C002CEFD1184F7F44AC3F46
:1013900018E0E80714D007EB04100DF1180A90E8E4
:1013A0000E008AE80E00C068F04201D1981908903A
:1013B000324606A903A800F0EDFA03AB83E8070064
:1013C0006D10641C002DE4D132466946B8F1000F5F
:1013D00003A802D000F0CAFA01E000F0DBFAC9E984
:1013E0000001C9F808200AB0BDE8F0871C630000BE
:1013F0000446AFF300802046FEF757FF4FF0013C54
:1014000050F8042B51F8043B9A4221D1A2EB0C0373
:10141000934313EACC1317D150F8042B51F8043B33
:101420009A4215D1A2EB0C03934313EACC130BD1D0
:1014300050F8042B51F8043B9A4209D1A2EB0C035B
:10144000934313EACC13DBD04FF00000704700BF8A
:10145000D01A01BAB1FA81F101F0180122FA01F0B3
:10146000CB40C1F12001DBB2C0B2C01A2CFA01F3AB
:10147000D11A914311EAC311E6D1704701491820EE
:10148000ABBEFEE72600020070475FEA400C08BFD3
:1014900091F0000F4FEA8C234FEAC12243EA5151E9
:1014A0004FEA1C5018BF00F5F0404FEA300018BF5B
:1014B00041F000415FEA6C5C00F02980BCF1FF3F25
:1014C00008BF40F080407047130C06BF12044FF075
:1014D000100C4FF0000C130E04BF12020CF1080C9C
:1014E000130F04BF12010CF1040C930F04BF920000
:1014F0000CF1020CD30F04BF52000CF1010C114689
:101500004FF00002A0F11F00A0EB0C00704711F09B
:10151000004F08BF704731F000413FF4D5AF0B0CCE
:1015200006BF09044FF0100C4FF0000C0B0E04BF67
:1015300009020CF1080C0B0F04BF09010CF1040C9B
:101540008B0F04BF89000CF1020CCB0F04BF4900C4
:101550000CF1010CCCF12003A0EB0C0022FA03F3F8
:1015600002FA0CF241EA030100F10100704720F099
:101570007F4C80EA030023F07F47ACEB070303F5C1
:101580007C5300F0004003F1FF032DE980494FEA4E
:10159000154B09B44FEA144325EA0B4E24EA0348DD
:1015A0000FF2042606EB132749083E785FEA320261
:1015B00003FB0667C7F5000707FB06F64FEA54373B
:1015C0004FEAD64606F1020607FB066CCCF1005C3A
:1015D0004FEA1C472CEA074C07FB06F40CFB06F508
:1015E00004EB15464FEA961634BF00204FF000403A
:1015F0004FEAD13706FB07FC4FEA1C4C0CFB0BF7FC
:10160000D21B03FB0CF761EB07010CFB0EF7B0EBF1
:10161000074072EB17420CFB08F734BFA2EB0742FE
:10162000B2EB074261EB17414FEA0C444FEA9107D6
:1016300006FB07FC4FEA1C4C0CFB0BF7B0EBC7405A
:1016400072EB573203FB0CF734BFA2EBC742B2EB8D
:10165000C74261EB57310CFB0EF7B0EBC70072EBE2
:1016600057720CFB08F734BFA2EBC702B2EBC702FC
:1016700061EB5771039F4FEA816141EA921104EBDC
:10168000CC044FEAD1374FEA826206FB07FC42EAFC
:1016900090124FEA80604FEA1C4C0CFB0BF7D21BF8
:1016A00003FB0CF761EB07010CFB0EF7B0EB0740F7
:1016B00072EB17420CFB08F734BFA2EB0742B2EB08
:1016C000074261EB17414FEA8C554FEA910704EB53
:1016D0009C2406FB07FC4FEA1C4C0CFB0BF7B0EB01
:1016E000C74072EB573203FB0CF734BFA2EBC74283
:1016F000B2EBC74261EB57310CFB0EF7B0EBC70002
:1017000072EB57720CFB08F734BFA2EBC702B2EBC7
:10171000C70261EB577115EB4C254FEA816141EA35
:1017200092114FEA82624FEAD13742EA901206FBE9
:1017300007FC44F100044FEA80604FEA1C4C0CFBAC
:101740000BF7D21B03FB0CF761EB07010CFB0EF749
:10175000B0EB074072EB17420CFB08F734BFA2EB6B
:101760000742B2EB074261EB174115EB1C154FEA3C
:10177000813141EA92414FEA823242EA90424FEA95
:1017800080304FEA0C7644F1000448EA03434EEA05
:101790000B484FF0000EB2EB080C71EB030724BFAF
:1017A000624639464EEB0E0E4FF0000B00185241C8
:1017B00049414BEB0B0BB2EB080C71EB03077BF1D0
:1017C000000B24BF624639464EEB0E0E4FF0000B65
:1017D0000018524149414BEB0B0BB2EB080C71EB7B
:1017E00003077BF1000B24BF624639464EEB0E0E19
:1017F00051EA020718BF46F0010616EB0E7655F1C6
:10180000000254F1000103D5BDE88901BDE800885C
:10181000BDE88901BDE80048B619524141EB01011C
:10182000A3F10103704780807F7E7D7C7B7A79788D
:10183000777676757473727171706F6E6E6D6C6C95
:101840006B6A6A6968686766666564646363626137
:101850006160605F5F5E5E5D5D5C5C5B5B5A5A59B8
:101860005958585757565655555554545353525224
:101870005251515050504F4F4F4E4E4D4D4D4C4C7C
:101880004C4B4B4B4A4A4A494949484848474747C5
:101890004746464645454544444444434343434202
:1018A000424242414141002B26D4770021D01CB551
:1018B0004FEA370703B44FF010004FF010014FF01C
:1018C00000000FBCBDE810400BF1010BBBF1010F94
:1018D00008BF5FEA170722BF12F1010211F10101EF
:1018E0004FF0004143F1000300F0004043EA0000E4
:1018F0007047F9D35708DAE746EA064613F1400F76
:101900004FEA16461FDD13F1200FDFBF16430A46CC
:10191000002120335B42C8D0C3F1200746EA0646C7
:1019200002FA07F74FEA164646EA0706C3F1200710
:1019300022FA03F201FA07F721FA03F14FF000034C
:1019400042EA0702B1E746EA020646EA06464FEADD
:10195000164646EA0106BCBF46EA0646360C4FF07C
:1019600000034FF000024FF000019EE72DE9C04850
:10197000934630B491E8380007C831EA400C48BFBC
:1019800034EA430C03D5FFF7F2FDFFF78CFFF0BC00
:10199000BDE800882DE9C048934630B491E838008E
:1019A00007C810F0804F08BF13F0804F03D100F03C
:1019B00005F8FFF778FFF0BCBDE8008820F07F470E
:1019C00080EA030023F07F4C07EB0C03A3F57C5364
:1019D00000F00040A3F1FE0392F0000F00F0B3808E
:1019E00095F0000F00F077802DE901494FEA114092
:1019F0004FEA144621EA004800FB06FC24EA0647A9
:101A000008FB06F607FB08F800FB07F718EB06488B
:101A10004CEB164C4FEA124B18EB07484FEA1546B1
:101A20004CEB174022EA0B4E0BFB06FC25EA06475F
:101A30000EFB06F607FB0EFE0BFB07F71EEB064E32
:101A40004CEB164C4FF000061EEB074E4CEB174BC1
:101A500018EB0B0840F1000018EB0E0B58EB0008D8
:101A600040F100008F1A4FF000013CBFC943661BD4
:101A700014BFB5EB040C00213CBFC943F61B4FEA71
:101A800017444EEA8E0E27EA04454FEA1C4704FB32
:101A900007622CEA074C05FB07F70CFB05F604FB75
:101AA0000CFC16EB074642EB174216EB0C4642EBDA
:101AB0001C421BEB060658EB0202414146EA9E0619
:101AC00001D5BDE80189B619524141EB0101A3F1ED
:101AD0000103BDE801894FEA14454FEA114724EAA2
:101AE000054621EA074C05FB07F406FB07F70CFB4C
:101AF00006F105FB0CFC11EB074144EB17444FEAE0
:101B0000124711EB0C4144EB1C4422EA074C05FB45
:101B100007F206FB07F70CFB06F605FB0CFC16EBC1
:101B2000074642EB174216EB0C4642EB1C456A187F
:101B300054F1000148BF7047B619524141EB010111
:101B4000A3F10103704795F0000F37D04FEA11421F
:101B50004FEA144721EA024624EA074C02FB07F148
:101B600006FB07F70CFB06F402FB0CFC14EB074426
:101B700041EB17414FEA154714EB0C4441EB1C4174
:101B800025EA074C02FB07F506FB07F70CFB06F6F8
:101B900002FB0CFC16EB074645EB174516EB0C4613
:101BA00045EB1C42121951F1000148BF7047B619AC
:101BB000524141EB0101A3F1010370474FEA144583
:101BC0004FEA114724EA054621EA074C05FB07F1D5
:101BD00006FB07F70CFB06F24FF0000605FB0CFCBA
:101BE00012EB074241EB174112EB0C4251EB1C4147
:101BF00048BF7047921841EB0101A3F10103704700
:101C00002DE9F04780460F4614461E460025A9469A
:101C10000625072000EB15202844384400EB14204B
:101C2000E1B2084400EB0609404602F0E3FA404600
:101C300002F0A4FA0721404602F0D4FA29464046B1
:101C400002F0E3FA3946404602F061FB2146404685
:101C500002F0DBFA3146404602F059FB4946404665
:101C600002F0AAFA0020BDE8F0872DE9F84F83467C
:101C7000884614461D46DDF828900026B24600200E
:101C8000009000270826280E8DF80000280C8DF8FB
:101C90000100280A8DF80200E8B28DF803004FF623
:101CA000FF7084420CD0072000EB1620F1B20844EC
:101CB000404400EB1420E1B2084400EB090A07E0BD
:101CC000072000EB1620F1B20844404400EB090A5B
:101CD000584602F08FFA584602F050FA072158464B
:101CE00002F080FA3146584602F08FFA41465846D3
:101CF00002F00DFB4FF6FF70844203D02146584698
:101D000002F083FA00270BE01DF80710584602F096
:101D100069FA1DF8070050441FFA80FA781CC7B210
:101D2000042FF1DB4946584602F0F1FA5146584675
:101D300002F042FA0020BDE8F88F00002DE9F047DC
:101D400081460E4600250027FF24A2464FF00008DA
:101D5000B04681E0052F7AD2DFE807F003162C3C6D
:101D60004C00681CC5B2484601F03AFB044654B921
:101D70000121484601F0F8FA044624B9002538A0AC
:101D800003F02EFB012763E0681CC5B2484601F052
:101D900027FB04466CB940A003F022FB0221484611
:101DA00001F0E2FA044624B941A003F019FB002532
:101DB00002274DE0484601F0E7FB044624B943A062
:101DC00003F00EFB032704E000254AA003F008FB04
:101DD00000273DE0484601F091FC044624B950A09C
:101DE00003F0FEFA042704E0414655A003F0F8FA98
:101DF00000272DE042460221484601F0AFFC044690
:101E0000002C1ED1414659A003F0EAFA414660A0D9
:101E100003F0E6FA6749484601F046FE8246BAF109
:101E2000000F05D16348018863A003F0D9FA04E0EC
:101E3000604801886CA003F0D3FA2046BDE8F08723
:101E400005E0414675A003F0CBFA002700E000BF93
:101E500000BF142D00D100E07CE700BF2046EDE775
:101E60000D0A20636173652030203A2047656E4378
:101E7000686172283129207375636365737321204B
:101E800070726573732066696E6765722061676141
:101E9000696E2121210D0A00D4D9B0B4D2BBB4CED1
:101EA000CAD6D6B8202E2E2E2E200D0A20000000D5
:101EB0000D0A2047656E43686172283229207375C8
:101EC0006363657373210D0A000000000D0A20632F
:101ED000617365323A204D61746368206F6F6F6F74
:101EE0006F6F6F6F6F6F6F6F6F6F6F6B212121213E
:101EF0000D0A00000D0A2063617365323A204D61BE
:101F0000746368206661696C65642121212C676FA8
:101F1000746F20666972737420737465700D0A00A3
:101F20000D0A2063617365333A205265674D6F6413
:101F3000656C2073656363657373210D0A0000008F
:101F40000D0A2063617365343A205265674D6F64F2
:101F5000656C2829206661696C6564212C20676F97
:101F6000746F206361736520300D0A000D0A2063D1
:101F7000617365343A2053746F72654368617228E7
:101F800049443D256429204F4B210D0A00000000E3
:101F90000D0A2063617365343A20CCEDBCD3D6B80A
:101FA000CEC6B3C9B9A62849443D256429204F4B64
:101FB000210D0A00500200200D0A20636173653470
:101FC0003A2050535F56616C696454656D706C655E
:101FD00074654E756D2856616C69644E3D256429A3
:101FE000206F6B210D0A00000D0A206361736534B8
:101FF0003A2050535F56616C696454656D706C652E
:1020000074654E756D2856616C69644E3D25642972
:10201000206661696C6564210D0A00000D0A206369
:10202000617365343A2053746F7265436861722836
:1020300049443D256429206661696C6564212067F7
:102040006F746F206361736520300D0A000000001B
:1020500010B505480078012805D0F12000F048FCB3
:10206000F42000F045FC10BD9502002010B5074893
:102070000078012808D1002004490870FC2000F0F5
:1020800037FCEE2000F034FC10BD0000950200206B
:1020900000BFFEE710B502460B460021002000BF3E
:1020A00004E0545C0444E0B24C1CE1B29942F8DB19
:1020B000C443641CE0B210BD2DE9F04F8DB08046E2
:1020C0000C464FF0FF0BFF200C90002600200B90D9
:1020D000089009900A90079098F800900690059053
:1020E0000490002582460390029001900027009002
:1020F0007CA003F075F949467EA003F071F900BF9A
:102100000CE0C6EB061208F103011144C81C0C21B7
:1021100003F01EF903F04EF9701C86B24E45F0DB59
:10212000204600F0E8FA4FF0FF0B002000900690E8
:10213000AEE0BAF1000F03D1032002F029FD06E062
:10214000082002F025FD4FF4167003F0C7F96E4821
:10215000006801F08BFD0020089009900A90FF2094
:102160000C906A4608A96848006801F0A3FF0C902B
:102170000C9800287BD1059008A9204600F013FD9B
:1021800001900198002863D104902078401C2070B1
:1021900007AA08A9404600F0DBFC0290029878BB31
:1021A000002D06DD9DF81C202946204600F020FD6C
:1021B0000746C7EB0711E01C45549DF81C10C7EB00
:1021C0000712104441700021C7EB0712E01C1044B5
:1021D0008170C7EB0711E01C0844089940F8031F01
:1021E000099941600A9981606078401C60700AF129
:1021F000010000F0FF0ACA4527DB4FF0000B4AE060
:10220000FFE7C5EB0511E01C455403986430C1B2EB
:10221000C5EB0512E01C104441706421C5EB0512AA
:10222000E01C10448170C5EB0511E01C08440899BE
:1022300040F8031F099941600A998160A078401C09
:10224000A0700398401CC0B20390681CC5B21BE08C
:102250000498401CC0B20490042815DB4FF0020B18
:1022600000E004E029A0049903F0BAF813E005980F
:10227000401CC0B20590032806DB4FF0010B2AA0DA
:10228000059903F0ADF806E00698401CC0B2069030
:102290000A2EFFF64EAF00BFBBF1000F06D005209F
:1022A00002F076FC26A003F09BF805E0102002F077
:1022B0006FFC2AA003F094F82EA003F091F833A04D
:1022C00003F08EF8404603F01BFD03F073F835A0D1
:1022D00003F086F8204603F013FD58460DB0BDE824
:1022E000F08F0000436865636B5F47756E28292196
:1022F0000D0A00006E6565645F67756E5F6E756DD3
:102300003D25640D0A00000008000020726570651C
:1023100061745F74696D65733D25642C62726561DB
:102320006B3B0D0A0000000072657472795F74697E
:102330006D65733D25642C627265616B3B0D0A000F
:10234000566F69636550726F6D70742847554E5FA4
:102350004641494C293B0D0A00000000566F696355
:102360006550726F6D70742847554E504153532914
:102370003B0D0A00616674657220436865636B5F9C
:1023800047756E2829200D0A000000002F2F2F2FDF
:102390002F2F2F2F2F705F7265715F67756E3D3E17
:1023A000000000002F2F2F2F2F2F2F2F2F705F7245
:1023B0006561645F67756E3D3E0000007047000018
:1023C00010B54FF4006000F01FF888B109480068AC
:1023D00050B909480078092806D10020064908703C
:1023E0000121880702F051F94FF4006000F006F86F
:1023F00010BD00002C012142C302002001490860E9
:10240000704700001404014001460020034A12688E
:102410000A400AB1012000E0002070471404014086
:10242000002123498279002A3AD00A4612680368BB
:102430009A430B461A600A1D126803689A430B1DE3
:102440001A60027911440A6803681A430A60184A3C
:102450000832126803689A43154B08331A601A1D34
:10246000126803689A43124B0C331A604279102A9F
:102470000ED11A1F126803681A430D4B08331A60F5
:102480001A1D126803681A43094B0C331A600DE0D9
:102490000749427911440A6803681A430A6005E053
:1024A000027911440A6803689A430A607047000081
:1024B0000004014070B504460025214613A002F037
:1024C0008FFF0020207060704FF6FF706080FF204B
:1024D0002071681EA060FF2060732073114800F017
:1024E0000AF9114800F007F90E4820610E486061B2
:1024F00000202169087061690870FF2020760020A3
:102500006076FF2009490870284670BD466C6F77D9
:102510005F496E69742C705F666C6F773D3078250B
:10252000780D0A00940300202D04002026000020CE
:1025300010B5044610210FA002F052FF40F20140F6
:10254000208012480078A0704FF400711048FEF708
:10255000E0F84FF400710F48FEF7DBF80C486060BC
:102560000C48A060FF2020736073A073E07300200C
:1025700010BD000073697A656F662846505F535935
:102580004E43293D25640D0A000000003400002060
:10259000800500208007002030B500228B071C0F2B
:1025A0000F2303FA04F20B4B8C1053F8243093439F
:1025B000084C8D1044F8253023468C1053F82430F5
:1025C0008C07240F00FA04F42343024C8D1044F8C6
:1025D000253030BD080001402DE9F04102460025BC
:1025E0000026002000230024002791F803C00CF0EF
:1025F0000F0591F803C00CF0100CBCF1000F03D0D4
:1026000091F802C04CEA050591F800C0BCF1000F3A
:1026100031D0146800202BE04FF0010C0CFA00F3CD
:10262000B1F800C00CEA03069E4220D183004FF0AF
:102630000F0C0CFA03F7BC4305FA03FC4CEA040444
:1026400091F803C0BCF1280F06D14FF0010C0CFA31
:1026500000FCC2F814C00AE091F803C0BCF1480FB6
:1026600005D14FF0010C0CFA00FCC2F810C0401C60
:102670000828D1D31460B1F800C0BCF1FF0F34DDDD
:10268000546800202EE000F1080C4FF0010808FA11
:102690000CF3B1F800C00CEA03069E4221D183007E
:1026A0004FF00F0C0CFA03F7BC4305FA03FC4CEA9D
:1026B000040491F803C0BCF1280F05D100F1080C07
:1026C00008FA0CF8C2F8148091F803C0BCF1480F66
:1026D00007D100F1080C4FF0010808FA0CF8C2F815
:1026E0001080401C0828CED35460BDE8F0814161C1
:1026F00070470161704770B5054600260024992196
:102700002846FEF706F800BF0CE0FF21C4EB0412D8
:10271000E81C10448170C4EB0412E81C10444170A2
:10272000601CC4B20A2CF0DB304670BD70B50546A3
:1027300000241FE005FA04F000F0800028B14FF4F7
:1027400000511548FFF7D5FF04E04FF4005112483F
:10275000FFF7CDFF4FF400410F48FFF7C8FF00F02F
:10276000E6FB00F0E4FB4FF400410B48FFF7C1FF2C
:10277000601CC4B2082CDDDB4FF480410648FFF733
:10278000B6FF00F0D4FB00F0D2FB4FF480410248CA
:10279000FFF7AFFF70BD00000010014010B54A48C0
:1027A0000078012873D10020474908704748007815
:1027B000012806D14648007800F0FC004449087022
:1027C00005E04348007840F0020041490870414864
:1027D0000078012806D13E48007800F0FA003C4914
:1027E000087005E03A48007840F004003849087065
:1027F00039480078012806D13548007800F0F60005
:102800003349087005E03248007840F0080030494C
:10281000087032480078012806D12D48007800F071
:10282000EE002B49087005E02948007840F01000C0
:10283000274908702A480078012806D124480078E2
:1028400000F0DE002249087005E02148007840F0E1
:1028500020001F49087023480078012806D11C4831
:10286000007800F0BE001A49087005E018480078AA
:1028700040F04000164908701B480078012807D135
:102880001348007800F07E001149087006E016E059
:102890000F48007840F080000D4908701348007818
:1028A000012806D10A48007840F001000849087064
:1028B00005E00748007800F0FE000549087004486C
:1028C0000078FFF733FF10BD8B0200208E0200203E
:1028D0008C0200208F020020900200209102002034
:1028E0009202002093020020940200208D0200201A
:1028F00010B504462046F42C57D012DCEE284ED0FA
:1029000008DC012817D07E2872D0BE2861D0DE28CE
:102910007BD151E0F12822D0F2282CD0F32874D1B9
:1029200037E0F5380A2870D2DFE800F04C2C6859FF
:102930006F1F6F126F0C0020364908700120364956
:10294000087063E0012033490870334908705DE086
:1029500000203249087001202F49087056E00120FC
:102960002E4908702C49087050E001202C4908704D
:10297000294908704AE000202949087001202649A9
:10298000087043E0002027490870012022490870A0
:102990003CE00120234908701F49087036E00120FF
:1029A000214908701C49087030E000201E49087059
:1029B00001201949087029E001201C4908701649B6
:1029C000087023E00020194908700120124908709E
:1029D0001CE00120164908700F49087016E000201D
:1029E0001349087001200C4908700FE000E00CE06A
:1029F0000120104908700849087007E000200D49BF
:102A0000087001200449087000E000BF00BFFFF714
:102A1000C5FE10BD8D0200208B0200208E0200201A
:102A20008F020020900200209102002092020020DC
:102A3000930200209402002008B50121102001F02B
:102A40008BF84FF46040ADF8000010208DF80300C3
:102A500003208DF8020069460448FFF7BDFD4FF4DE
:102A600060410248FFF745FE08BD0000001001402C
:102A700000BFFEE71FB50121052001F06DF8102011
:102A8000ADF80C008DF80F0003208DF80E0003A99F
:102A90001B48FFF7A1FD10211948FFF72AFE4FF44C
:102AA0000060ADF80C0048208DF80F0003208DF871
:102AB0000E0003A91248FFF78FFD0B210020FFF73E
:102AC0006BFD4FF40060009000208DF804000C2096
:102AD0008DF8050001208DF806006846FFF7A0FC80
:102AE00028208DF8080002208DF809008DF80A00D2
:102AF00001208DF80B0002A800F020FA1FBD000095
:102B00000008014070B50446002500200F49086008
:102B1000102002F00DFD00BF0FE004F0010018B11D
:102B200001200A49086002E00020084908601020DE
:102B300002F0FEFC6410681CC5B2082DEDDB01201C
:102B400002490860102002F0F3FC70BD90012142A0
:102B50002DE9F04705460F4616464FF0FF08C146DF
:102B600095F800A000244FF001086420307000BFE9
:102B700013E0C4EB0412E91C1144C81C0C223946B2
:102B8000FDF737FD00F0FF09B9F1000F03D13470F4
:102B90004FF0000803E0601CC4B25445E9DB00BFFD
:102BA0004046BDE8F0872DE9F04704460F464FF058
:102BB0000008FF2694F80090002500BF0FE0C5EB49
:102BC0000512E11C1144C81C0C223946FDF711FD09
:102BD000C6B216B94FF0010803E0681CC5B24D45F6
:102BE000EDDB00BF0EB14FF000084046BDE8F087B6
:102BF0002DE9F04107460D4690462E460024012D52
:102C000001DA002626E02E46681EC4B20CE0AC4273
:102C100000DB0BE0C4EB0411F81C0844407840458D
:102C200000DD2646601EC4B2002CF0DA00BFAE42C2
:102C300010DA2C460CE0621EC2EB0213FA1C991843
:102C4000C4EB041398180F22FDF71EFD601EC4B2DA
:102C5000B442F0DC3046BDE8F08100002DE9F843D5
:102C600006468846914600253446A18AA068471842
:102C70003BE00A2002F032FC2048008868B102F0F4
:102C800099FBE38A3A461E48A16802F0A9FB10218D
:102C9000384602F0D1FA02F08DFBE08A022824D1F6
:102CA00049463846FDF793FC05461448008858B15C
:102CB000A0890090E38A3A461248A16802F090FB8E
:102CC0001021384602F0B8FA05B100BFBD4202D368
:102CD000E81B608201E000206082A08A618A0844CB
:102CE000A08215B12846BDE8F883A8F1010080B2A2
:102CF0005FEA0008BDD100BFF5E700003800002002
:102D00004C770008F87700082DE9F0470746884619
:102D100091469A4600253C4656462AE0142002F089
:102D2000DDFB1848008868B102F044FBE38A3246B4
:102D30001548A16802F054FB1021304602F07CFADD
:102D400002F038FBE08A022813D149463046FDF7ED
:102D50003EFC0546B54202D3A81B608201E000207C
:102D60006082A08A618A0844A08215B12846BDE825
:102D7000F087A8F1010080B25FEA0008CED100BF61
:102D8000F5E7000038000020FC7600082DE9FC473C
:102D900007468846914600253C46A18AA068461809
:102DA0003EE0142002F09AFB2148008868B102F04E
:102DB00001FBE38A32461F48A16802F011FB102193
:102DC000304602F039FA02F0F5FAE08A022827D1FB
:102DD00049463046FDF7FBFB05461548008868B1BB
:102DE000A089E18ACDE90010334629461248A2683D
:102DF00002F0F6FA1021304602F01EFA05B100BFCB
:102E0000B54202D3A81B608201E000206082A08A44
:102E1000618A0844A08215B12846BDE8FC8700BF3E
:102E2000A8F1010080B25FEA0008BAD100BFF4E760
:102E3000380000204C770008987700082DE9F0470B
:102E400006468946154600273446A18AA06800EB4D
:102E5000010818484088288016488079002823D027
:102E6000E08A02281BD114A002F0BAFA4946404673
:102E7000FDF7ADFB0746474503D3A7EB080060828B
:102E800001E000206082A08A618A0844A08209488B
:102E90004088288017B13846BDE8F08704E005482F
:102EA000408828800020F7E70248408828800020DA
:102EB000F2E700001C0000204A75646765537472D5
:102EC0005F66726F6D5365725F6E6F7761697428AC
:102ED000292F72785F73746174653D320D0A0000AA
:102EE00000BF00BF00BF00BF00241AE001F0A4FF34
:102EF0000C4800688089002811DD0A480068816854
:102F0000084800688089401E0C5C7A2C01D05A2C3D
:102F100005D10448006800F0A9FE03F06DFB01F044
:102F2000C7FEE3E71400002000BFFEE77047002063
:102F300001E0411CC8B21E28FBDB704770B50021C0
:102F400000230F22C47804B3154C246804F4E06411
:102F5000C4F5E064210AC1F10403CA40447804FACC
:102F600003F184781440214309010E4C0678A155E1
:102F7000047804F01F050124AC4005786D11AD0004
:102F800005F1E025C5F8004109E0047804F01F05CB
:102F90000124AC40044D0678761145F8264070BDFA
:102FA0000CED00E000E400E080E100E002490143B4
:102FB000024A1160704700000000FA050CED00E0C5
:102FC0002DE9F04704464FF0FF0AFF2500264FF099
:102FD00000094FF0000800270025002060762078C7
:102FE00005281AD005DC22D2DFE800F00C0D1415FC
:102FF0001600062812D0072806D009280FD064280A
:1030000015D102E000BF00BF00BF002500202F49FE
:1030100008700EE000BF00BF00BF00BF00BF012569
:1030200001202A490870606990F8008001E00025BD
:1030300000BF00BF6576012D3FD1606990F8008028
:103040004FEA4860060E012E01DD701EC6B208F17F
:10305000030000F0FF094B46324641461CA002F037
:10306000BFF9002705E04FF47A7002F037FA781CB8
:10307000C7B2B742F7DB012001F08AFD01201349F6
:1030800008707E20FFF734FCFEF7F0FF1FA002F06F
:10309000A7F9002705E04FF47A7002F01FFA781CB8
:1030A000C7B24F45F7DBFEF7D3FFF720FFF720FC51
:1030B000002565761DA002F093F965760020207347
:1030C00094F80CA05046BDE8F0870000950200205F
:1030D000626172726965722077696C6C204F50452D
:1030E0004E45442167756E5F6E756D3D25642C6499
:1030F000656C61795F736563733D25642C6C6173E6
:10310000745F736563733D25640D0A0062617272BA
:10311000696572204F50454E454421706C732063A1
:103120006F6D6520696E210D0A0000006261727288
:1031300069657220434C4F534544210D0A0000003D
:103140002DE9F04780460C4615464FF000094046F1
:1031500000F08CFD404601F005F8404600F0E4FF29
:103160000121404601F03EF80721404601F04DF8AC
:103170000C21404601F0CBF82112404601F060FCE2
:10318000E1B2404601F05CFC2912404601F058FCD7
:10319000E9B2404601F054FC142000EB2420E1B2D7
:1031A000084400EB2520E9B200EB010949464046FE
:1031B00001F002F8064A64214046FFF74FFD07463A
:1031C0000FB17E7A00E0FF263046BDE8F0870000B0
:1031D000AA0200202DE9FF4F87B0804699460020C3
:1031E0000690002505900490834603900024022059
:1031F00002900020019000904F46404600F036FDBE
:10320000404600F0AFFF404600F08EFF01214046EF
:1032100000F0E8FF0421404600F0F7FF0921404696
:1032200001F075F84046089901F00AFC08980E3044
:1032300006904046069900F0BFFF3E4A6421404692
:10324000FFF70CFD064616B196F809A001E04FF015
:10325000FF0AB8F814000C30A8F81400BAF1000FF7
:103260005DD14F46099E00240220029000250020D7
:10327000059000900A2002F031F900BF00252E4889
:103280000088874208DD022002902B48B0F800B089
:103290000088381A87B203E008200290BB46002756
:1032A0000BF1020080B20390DDE9020100EB112175
:1032B0000398C0B20844284485B230190490002015
:1032C000019008E0305D284485B2601C84B201980A
:1032D000401C80B2019001985845F3DB404600F055
:1032E00041FF404600F020FF4046029900F07AFF7F
:1032F0004046039900F089FF5A464046049900F081
:1033000067FF2946404600F057FF0098401C80B2F6
:1033100000900598284480B20590002FAEDC22462C
:1033200006A0059B089902F05BF820460BB0BDE8AB
:10333000F08F0000AA0200202E0000204275666671
:10334000657249443D25642C6275665F7573653D01
:1033500025642C74656D705F746F74616C3D30789A
:1033600025780D0A000000002DE9F04104460F46C3
:10337000A08910B1204600F079FC204600F0F2FE52
:10338000204600F0D1FE0121204600F02BFF042151
:10339000204600F03AFF0221204600F0B8FF3946EF
:1033A000204601F04DFB07F107084146204600F09A
:1033B00003FF094AC8212046FFF750FC05460DB11E
:1033C0006E7A00E0FF26002004490880A08A0C30B5
:1033D000A0823046BDE8F081AA020020380000201B
:1033E0002DE9F0410446A08910B1204600F03EFCD2
:1033F000204600F0B7FE204600F096FE0121204650
:1034000000F0F0FE0321204600F0FFFE01212046DF
:1034100000F07DFF05273946204600F0CDFE084A22
:10342000C8212046FFF71AFC05460DB16E7A00E070
:10343000FF26A08A0C30A0823046BDE8F081000053
:10344000AA0200202DE9F05F8246884615461E46F6
:10345000DDF82890504600F009FC504600F082FE4E
:10346000504600F061FE0121504600F0BBFE0821ED
:10347000504600F0CAFE1B21504600F048FF41466E
:10348000504601F0DDFA2912504601F0D9FAE9B2AE
:10349000504601F0D5FA3112504601F0D1FAF1B29E
:1034A000504601F0CDFA08F1240000EB2520E9B2E6
:1034B000084400EB2620F1B200EB010B59465046C0
:1034C00000F07AFE0C4A4FF4FA715046FFF7C6FB43
:1034D00004466CB1677AE07AA17A00EB0120A9F882
:1034E0000000607B217B00EB0120A9F8020000E0D6
:1034F000FF273846BDE8F09FAA0200202DE9F047DB
:1035000005460F461446284600F0B0FB284600F05A
:1035100029FE284600F008FE0121284600F062FE40
:103520000621284600F071FE0721284600F0EFFE34
:103530003946284601F084FA2112284601F080FA23
:10354000E1B2284601F07CFA07F10E0000EB2420DE
:10355000E1B200EB01094946284600F02DFE094A78
:1035600064212846FFF77AFB8046B8F1000F02D0AD
:1035700098F8096000E0FF26A88A0C30A88230463F
:10358000BDE8F087AA0200202DE9F041044620465C
:1035900000F06CFB204600F0E5FD204600F0C4FD85
:1035A0000121204600F01EFE0321204600F02DFEE2
:1035B0000321204600F0ABFE07273946204600F0E5
:1035C000FBFD084A4FF4FA712046FFF747FB064619
:1035D0000EB1757A00E0FF25A08A0C30A082284643
:1035E000BDE8F081AA0200202DE9F0470546884693
:1035F0009146284600F03AFB284600F0B3FD2846E5
:1036000000F092FD0121284600F0ECFD042128463F
:1036100000F0FBFD1F21284600F079FE41462846B8
:1036200001F00EFA08F1240A5146284600F0C4FDC4
:103630000D4A64212846FFF711FB074667B17E7AE1
:10364000002406E004F10A00385C09F80400601C5C
:10365000C4B2202CF6DB00E0FF26A88A2C30A8821A
:103660003046BDE8F0870000AA0200202DE9F041B5
:1036700006460D46304600F0F9FA304600F072FD7D
:10368000304600F051FD0121304600F0ABFD032132
:10369000304600F0BAFD0F21304600F038FE4FF002
:1036A00013084146304600F087FD134A6421304636
:1036B000FFF7D4FA0446BCB1677AE07BA17B00EB4C
:1036C00001202880607CA870A07C0006E17C00EBD3
:1036D0000140217D00EB0120617D08446860E07DB0
:1036E0002872607E687200E0FF27B08A1C30B082CA
:1036F0003846BDE8F0810000AA0200202DE9F04123
:103700000446204600F0B2FA204600F02BFD204689
:1037100000F00AFD0121204600F064FD032120464F
:1037200000F073FD0521204600F0F1FD0927394620
:10373000204600F041FD084A64212046FFF78EFA3A
:1037400006460EB1757A00E0FF25A08A0C30A082F3
:103750002846BDE8F0810000AA0200202DE9F047CC
:1037600005460F461446284600F080FA284600F029
:10377000F9FC284600F0D8FC0121284600F032FD73
:103780000621284600F041FD0621284600F0BFFD35
:103790003946284601F054F92112284601F050F923
:1037A000E1B2284601F04CF907F10D0000EB2420AE
:1037B000E1B200EB01094946284600F0FDFC094A48
:1037C00064212846FFF74AFA8046B8F1000F02D07C
:1037D00098F8096000E0FF26A88A0C30A8823046DD
:1037E000BDE8F087AA0200202DE9F74F8AB0054610
:1037F0000027BB4600200990089081460024A86855
:103800000590A8680490A0460020039082460026F8
:10381000284600F02BFA284600F0A4FC284600F0C9
:1038200083FC0121284600F0DDFC0421284600F03D
:10383000ECFC0821284600F06AFD28460B9901F0AF
:10384000FFF80B9800F10D073946284600F0B4FC4C
:10385000694A64212846FFF701FA0690069818B1D4
:103860000698407A079001E0FF200790A88A0C3064
:10387000A88205980C300590322001F02FFE0798A1
:1038800000287CD100278346089000BF00205B49B8
:1038900008805B4A64212846059BFFF735FA0446F9
:1038A0000020564908800027002C70D0A0790228FB
:1038B00002D0A079082864D1207AE17900EB0120B8
:1038C00086B2A079E1790844217A0844384487B265
:1038D000A079082802D10120039001E00020039084
:1038E0004FF0000818E008F10900225C5046411C26
:1038F0001FFA81FA0C990A5408F10900205C384437
:1039000087B208F10900215C0898084480B2089049
:1039100008F101001FFA80F8B01E4045E3DC0A30D0
:10392000215CF01D205C01EB002080B20990A98A87
:1039300006F109000844A88204F10900304405900A
:10394000A98AA868084404900998874202D14FF0D8
:10395000000917E009F1010000F0FF0929A001F0BA
:103960003FFD06F10800215CF01D205CCDE900015F
:103970003A4631462C48099B01F032FD02E00CE04A
:1039800005E009E00BEB07001FFA80FB00E003E015
:10399000039800283FF47AAF00BFB9F1000F15D0AB
:1039A0005246494621A001F01BFD4FF0000A524645
:1039B00049462CA001F014FD0898CDE900B0AA8A70
:1039C00051463748099B01F00BFD07E0089800902D
:1039D000AA8A5B465146334801F002FD039801284C
:1039E00008D1B9F1000F03D000200DB0BDE8F08F71
:1039F0005046FAE70020F8E7AA020020380000202D
:103A0000A30200206672616D652075702064617488
:103A10006120636865636B73756D206661696C65B1
:103A200064210D0A00000000047A00085570436804
:103A3000617220656E642C20636865636B73756DBD
:103A40005F6661696C65643D25642C206F726967EF
:103A5000696E616C2075705F6C656E3D2564200D2C
:103A60000A00000055704368617220656E642C2066
:103A7000636865636B73756D5F6661696C65643DF2
:103A800025642C2075705F6C656E206368616E67BD
:103A9000657320746F203D2564200D0A000000002E
:103AA000687A0008C47A00082DE9F04105460F46FF
:103AB000284600F0DBF8284600F054FB284600F0CA
:103AC00033FB0121284600F08DFB0321284600F03E
:103AD0009CFB1D21284600F01AFC4FF021084146AE
:103AE000284600F069FB0A4A64212846FFF7B6F829
:103AF000044634B1667AE07AA17A00EB012038807E
:103B000000E0FF26A88A0E30A8823046BDE8F0818A
:103B1000AA0200207047000029B1064AD269024378
:103B2000044BDA6104E0034AD2698243014BDA6153
:103B3000704700000010024029B1064A1269024392
:103B4000044B1A6104E0034A12698243014B1A6173
:103B5000704700000010024029B1064A92690243F2
:103B6000044B9A6104E0034A92698243014B9A61D3
:103B7000704700000010024029B1064AD268024393
:103B8000044BDA6004E0034AD2688243014BDA60F6
:103B9000704700000010024030B5002100220024D0
:103BA00000232D4D6D6805F00C0121B1042905D0CD
:103BB000082923D105E0294D056022E0274D056045
:103BC0001FE0254D6D6805F47012234D6D6805F4F6
:103BD0008034022505EB92421CB9214D5543056006
:103BE0000BE01D4D6D6805F400351DB11C4D5543AE
:103BF000056002E0194D5543056002E0174D056070
:103C000000BF00BF144D6D6805F0F0010909154DA6
:103C10006B5C0568DD4045600F4D6D6805F4E06143
:103C2000090A104D6B5C4568DD4085600A4D6D6882
:103C300005F46051C90A0B4D6B5C4568DD40C560F9
:103C4000054D6D6805F44041890B074D6B5CC568F7
:103C5000B5FBF3F5056130BD0010024000127A009B
:103C600000093D00CA020020DA02002070B50446B7
:103C700000251948844210D002E0206800F0CAFEF6
:103C800040F22551206800F00AFE0028F5D10022FC
:103C900040F22551206800F02CFEA589218BA068F8
:103CA000FCF737FD0020A081E0810B48844202D15F
:103CB0000120207401E00020207400206082A08296
:103CC000E0820548844205D0012240F22551206857
:103CD00000F00FFE284670BD700300202DE9FE4F56
:103CE00006468846FF2002904FF000094FF0000A78
:103CF000002700200190B346BBF81410DBF8080041
:103D0000084400901B490098FCF761FC0446FF2022
:103D10000290002C2AD06778781C14F800903A465C
:103D2000214615A001F05CFB781CC1B22046FEF7CD
:103D3000B1F98246D14512D149461AA001F050FB93
:103D4000002505E0681D205C08F80500681C85B2A8
:103D50000C2DF7DB0C2001900020029006E052466B
:103D6000494615A001F03CFB012002900298BDE8F5
:103D7000FE8F00007C02002072656164206C61622D
:103D8000656C207375636365737321646174613D51
:103D9000307825782C6672616D655F6C656E3D25A7
:103DA000640D0A00636865636B73756D206F6B3D0E
:103DB00025640D0A00000000636865636B73756D10
:103DC000206572726F722C206672616D655F636828
:103DD00065636B73756D3D25642C2074656D705F34
:103DE000636865636B73756D3D25640D0A000000A3
:103DF0002DE9F84F80468946FF274FF0000B00263B
:103E00000025AA465948046859A001F0E9FA0020A3
:103E10005F4908805F4A49464046FEF7B7FF0546BE
:103E200000205B4908806A7A29465BA001F0D8FA35
:103E300055B195F806A095F809B06E7A3246294634
:103E400064A001F0CDFA05E04FF0FF0B6BA001F08C
:103E5000C7FA88E000204E4908800A2E33D1204658
:103E6000FEF728FB0320207066704FF6FF7060801D
:103E7000002061690870A87A0006E97A00EB014029
:103E8000297B00EB0120697B0844A060002060735F
:103E9000FF2020732046FFF793F820730027207B34
:103EA0000090628821786348A36801F099FA207B2A
:103EB0000090628861786048A3680068FDF7D5FECD
:103EC0003846BDE8F88FBAF1010F4BD1082E47D123
:103ED0005A48FEF72DFB594A2946404603F07AF925
:103EE0000746002F2CD15548018855A001F078FADB
:103EF00062480078514988706148006801F052FCBE
:103F000007464FB94D4801885EA001F069FA0020CC
:103F10004A498873C8731AE04848807B10B9FF206B
:103F2000464988734548C07B10B9FF204349C87390
:103F30004248C37B827B01885C4801F051FA06E06D
:103F40003E48037B027B0188594801F049FA3B480F
:103F5000C37B0288314638480068FDF751FE00E017
:103F600000BF00BF00BF3846ABE7000018000020CC
:103F700077616974696E6720666F72207365727607
:103F8000657220636D64202E2E2E200D0A00000025
:103F900038000020580200204A7564676553747227
:103FA0005F66726F6D536572282920726574757231
:103FB0006E2C636F6D6D5F646174613D3078257840
:103FC0002C636F6D6D5F646174615B395D3D0D0ADB
:103FD0000000000072656365697665642120636F87
:103FE0006D6D5F646174613D307825782C636D641C
:103FF0003D30782578200D0A000000006E6F74684F
:10400000696E672066726F6D207365727665722EB9
:104010002E2E206F7220726563656976642064615C
:104020007461206E6F7420636F72726563742120F7
:104030000D0A00006079000804000020E40400205C
:10404000BDD3CAD5B7FECEF1C6F7CAFDBEDDB3C932
:10405000B9A62C6F6B2C2073746F72655F69643D19
:1040600025642C20BCCCD0F8CFC2D4D8B5BDD6B8EE
:10407000CEC6BFE2202E2E2E200D0A0034000020D6
:1040800000000020646F776E53746F72654368613F
:104090007262756620737563636573732C20737425
:1040A0006F72655F69643D25640D0A00B47900088C
:1040B000507800082DE9F04180460C461546FF2750
:1040C00015262E701BE04046FFF7D0FD0020206033
:1040D0006060A060404600F0E1F84FF4967001F097
:1040E000FDF921464046FFF7F9FD07463FB908A014
:1040F00001F076F90C21204601F02AF903E0701E48
:10410000C0B20600DFD100BF2E703846BDE8F08196
:104110006C6162656C2072656164204F4B210D0AF1
:10412000000000007047000010B504460C4800680D
:10413000010E204600F084FC09480068C0F30741E6
:10414000204600F07DFC06480088C0F30721204689
:1041500000F076FC02480178204600F071FC10BDAA
:104160009802002010B50446EF21204600F068FCBC
:104170000121204600F064FC10BD000010B504468B
:104180000C480068010E204600F05AFC09480068FF
:10419000C0F30741204600F053FC06480088C0F3F6
:1041A0000721204600F04CFC02480178204600F030
:1041B00047FC10BD5402002070B505460C46211284
:1041C000284600F03DFCE1B2284600F039FC70BD05
:1041D00070B504460D46164632462946204600F084
:1041E00049FC70BD70B504460D462946204600F0D6
:1041F00027FC70BD10B50446EF21204600F020FCDE
:104200000221204600F01CFC10BD70B505460C468E
:10421000C4F30721284600F013FCE1B2284600F061
:104220000FFC70BD70B5044601201A4908604FF4B8
:10423000966001F07DF900201749C1F8B00140F601
:10424000B83001F075F900251DE001201149086022
:1042500004F0010050B14FF4487001F069F90020FA
:104260000C490860D22001F063F909E0D22001F086
:104270005FF90020074908604FF4487001F058F9D1
:104280006410681CC5B2082DDFDB012001490860FD
:1042900070BD0000B00121420000214270B504460B
:1042A00000250A220249204600F0E4FB284670BDA2
:1042B000627500082DE9F04106460D4614460027B8
:1042C0003046FFF797FF3046FFF758FF032130468F
:1042D000FFF788FF05213046FFF797FF2946304654
:1042E00000F015F82112304600F0AAFBE1B230468A
:1042F00000F0A6FB05F1080000EB1420E1B247181E
:1043000039463046FFF758FF0020BDE8F08170B510
:1043100004460D462946204600F092FB70BD10B5BC
:1043200000F002F810BD00000CB5002001900090D4
:104330003348006840F480303149086000BF30489D
:10434000006800F4003000900198401C0190009833
:1043500018B90198B0F5A06FF1D12948006800F4B0
:10436000003010B10120009001E000200090009882
:10437000012843D12348006840F01000214908601B
:104380000846006820F0030008600846006840F016
:10439000020008601A4840681949486008464068A9
:1043A00048600846406840F48060486008464068BD
:1043B00020F47C1048600846406840F4E8104860EB
:1043C0000846006840F08070086000BF0C48006834
:1043D00000F000700028F9D00948406820F0030080
:1043E000074948600846406840F00200486000BF46
:1043F0000348406800F00C000828F9D10CBD00000B
:104400000010024000200240042808D14FF0E021B3
:10441000096941F004014FF0E022116107E04FF01B
:10442000E021096921F004014FF0E0221161704799
:104430007047000010B51348006840F001001149B2
:10444000086008464068104908400E494860084620
:1044500000680E4908400B4908600846006820F4CF
:10446000802008600846406820F4FE0048604FF451
:104470001F008860FFF753FF4FF000600449086099
:1044800010BD0000001002400000FFF8FFFFF6FE24
:1044900008ED00E010B50121880700F002F90028BE
:1044A00038D00121880700F0EDF81B480078401C47
:1044B0001949087008460078092812D100218007A0
:1044C00000F0E3F815480178154802780078401CA0
:1044D000134B1870134881541048007800F024FBE7
:1044E00010BD1148006858B10B480078401E0121EA
:1044F00001FA00F00949097808430849087009E001
:1045000005480078401E0121814004480078884316
:104510000249087000BFE3E7C3020020C402002084
:10452000C2020020D42100202C0121427FB5054683
:104530000C4601210846FFF7EFFAADF80850ADF838
:1045400004400020ADF80A00ADF8060001A94FF0C4
:10455000804000F0C9F80121880700F093F801229B
:104560001146900700F0B7F81C208DF800000120DC
:104570008DF801008DF802008DF803006846FEF703
:10458000DDFC7FBD10B501211B4800F093F8C8B1D8
:104590001A480088401C19490880084600881421E0
:1045A00090FBF1F201FB12001449088008460088D4
:1045B00020B913480088401C1149088001210E4889
:1045C00000F060F80D480088A0B90E48007C10B9D2
:1045D0000C4801F0E9FF0C48007C10B90A4801F0D2
:1045E000E3FF0A48007C10B9084801F0DDFF0848E5
:1045F00000F0B0FC10BD0000000800408802002060
:1046000028000020E0020020040300204C030020CA
:104610001C0000207FB505460C4601210420FFF751
:104620007BFAA8B2ADF80800A0B2ADF804000020F3
:10463000ADF80A00ADF8060001A9104800F054F8E2
:10464000012211460E4800F046F84FF4A060FEF734
:10465000ADFC1E208DF8000000208DF80100022026
:104660008DF8020001208DF803006846FEF766FC15
:104670000021034800F009F87FBD0000000400405D
:1046800000080040CA430282704721B1028842F00C
:104690000102028004E002884FF6FE731A40028095
:1046A000704702460020138A0B400BB1012000E046
:1046B0000020704730B50246002000230024158AF0
:1046C00005EA0103958905EA010413B10CB1012043
:1046D00000E0002030BD1AB183890B43838102E0E2
:1046E00083898B4383817047002202881D4B984247
:1046F0000ED01D4B98420BD0B0F1804F08D01B4B11
:10470000984205D01A4B984202D01A4B984204D1D5
:104710004FF68F731A404B881A43174B984207D0B5
:10472000164B984204D04FF6FF431A40CB881A43E9
:1047300002808B8883850B8803850A4B98420BD0B7
:10474000094B984208D00E4B984205D00D4B984229
:1047500002D00D4B984201D10B7A0386012383824C
:1047600070470000002C014000340140000400406C
:1047700000080040000C0040001000400014004001
:1047800000400140004401400048014010B502488B
:1047900000F08EF910BD0000E002002010B50248C4
:1047A00000F086F910BD00000403002010B5024897
:1047B00000F07EF910BD00004C03002001F40072EF
:1047C000B2F5007F00D100BFCA430280704721B11B
:1047D000828942F40052828104E082894DF6FF739F
:1047E0001A4082817047000010B504462048844278
:1047F00009D101218803FFF7BFF900214FF4804060
:10480000FFF7BAF932E01B48844209D1012148047C
:10481000FFF792F900214FF40030FFF78DF925E002
:104820001548844209D101218804FFF785F9002148
:104830004FF48020FFF780F918E01048844209D136
:104840000121C804FFF778F900214FF40020FFF799
:1048500073F90BE00A48844208D101210805FFF7EB
:104860006BF900214FF48010FFF766F910BD0000CE
:10487000003801400044004000480040004C004027
:104880000050004002460020B1F5007F00D100BF7B
:1048900013880B400BB1012000E00020704770B579
:1048A0000246002400230025002040F66A16B1428B
:1048B00000D100BFC1F3421501F01F03012606FA23
:1048C00003F3012D02D19689334006E0022D02D177
:1048D000168A334001E0968A33400C12012606FA0C
:1048E00004F41688344013B10CB1012000E000201C
:1048F00070BDF0B50346002400260025002040F6D8
:104900006A17B94200D100BF1846C1F3421401F042
:104910001F06012707FA06F5012C01D10C3004E02F
:10492000022C01D1103000E014301AB107682F4377
:10493000076002E00768AF430760F0BD2DE9F0476C
:1049400086B005460E460024A24600BFA1460027B9
:10495000B08900B100BF2F462C8A4CF6FF7004408E
:10496000F08804432C82AC894EF6F3100440B088E2
:1049700031890843718908430443AC81AC8A4FF6FE
:10498000FF400440B0890443AC8201A8FFF704F95A
:104990001F48874202D1DDF810A001E0DDF80CA02D
:1049A000A88900F4004040B10AEBCA0000EB0A10ED
:1049B00031684900B0FBF1F807E00AEBCA0000EBF0
:1049C0000A1031688900B0FBF1F86420B8FBF0F000
:1049D00004012009642101FB1089A88900F400402A
:1049E00040B1322000EBC900B0FBF1F000F007004D
:1049F000044308E0322000EB09106421B0FBF1F021
:104A000000F00F0004432C8106B0BDE8F0870000E1
:104A10000038014001468888C0F30800704770B52F
:104A200005460E46002404E0285DFEF76BF8601C86
:104A3000C4B2B442F8DB70BDC1F308028280704793
:104A400070B504460D460A480068844203D12846E2
:104A500000F090F80AE029462068FFF7EDFF00BF5C
:104A600040212068FFF70EFF0028F9D070BD00003C
:104A70000C0000202DE9F04107460D4616460A4875
:104A80000068874204D1F1B2284600F079F808E0C6
:104A9000002404E0295D3846FFF7D2FF641CB442CD
:104AA000F8D3BDE8F08100000C00002000BFFEE755
:104AB00070B50446A56840F225512068FFF7EFFE67
:104AC000D0B1002240F225512068FFF712FFE08AA2
:104AD00002280EDA2068FFF79DFFC1B2A289501CA0
:104AE000A081A954A089218B884205DB0220E082A5
:104AF00002E02068FFF78EFF012240F22551206876
:104B0000FFF7F7FE70BD10B58268C38A022B09DA81
:104B10008489631C838111558389048BA34201DB43
:104B20000223C38210BD000010B50446214602488E
:104B3000FFF7E9FF10BD00007003002008B5012158
:104B40000420FFF709F84FF48050ADF80000102062
:104B50008DF8030003208DF8020069460448FDF734
:104B60003BFD4FF480510248FDF7C3FD08BD000036
:104B70000008014010B504462046FDF7C3FF10BDF4
:104B800070B504460D4629462046FFF748FF70BD24
:104B900010B50446092C0CDC0A20FFF743FB00206B
:104BA000FFF740FB2046FFF73DFB0B20FFF73AFBEA
:104BB00037E0102C10DB192C0EDA0A20FFF732FB3D
:104BC0000120FFF72FFBA4F11001C8B2FFF72AFB69
:104BD0000B20FFF727FB24E0202C10DB292C0EDA1A
:104BE0000A20FFF71FFB0220FFF71CFBA4F12001A6
:104BF000C8B2FFF717FB0B20FFF714FB11E0302CB6
:104C00000FDB392C0DDA0A20FFF70CFB0320FFF72E
:104C100009FBA4F13001C8B2FFF704FB0B20FFF73A
:104C200001FB10BD490050EAC12018BF04204A0D05
:104C300018BF40F0010040F2FF72B2EB515F08BFB5
:104C400040F00200012808BF0520704730380A28CC
:104C500001D20120704700207047000070B5044663
:104C6000002510480068FDF725FC20880D490968DB
:104C7000488000200B49096848730A480068427B55
:104C8000084800684188084800F0AAFB05490968FF
:104C9000488801F06DFA054604480068FEF7E6FF13
:104CA000284670BD18000020A876000804000020E7
:104CB00010B5FF2414480068C08A022809D11421C5
:104CC00011480068FFF794F80F480068FEF7CEFF20
:104CD00017E00D480068C08A98B90C48008832284F
:104CE00008DB322000F080F800BF00F011F8002847
:104CF000FBD104E005480088401C04490880204698
:104D000010BD2046FCE70000040000201C0000202D
:104D100038B50020009001241B488079012830D14B
:104D200069461A48006801F0CFF9C4B284B9BDF8E9
:104D30000020002116A000F053FB00201E4908703F
:104D400000F05CFF11480068FEF790FF002038BDBE
:104D5000BDF8000040F6B83188420EDB012117A0F3
:104D600000F03EFB01201449087000F047FF07489F
:104D70000068FEF77BFF0020E9E7BDF8000002496C
:104D800048800120E3E700001C0000200400002010
:104D90004E4554574F524B5F4F4B3D25642C6E652B
:104DA00074776F726B5F776169745F6D733D2564B3
:104DB000206D730D0A000000240000204E4554575A
:104DC0004F524B5F425245414B3D25642C6E6574FA
:104DD000776F726B20627265616B212120CDF8C202
:104DE000E7D6D0B6CF0D0A0070B5064645F2AA54F4
:104DF00000250948807960B908A000F0F1FA224640
:104E000007210C480068FFF755FA01200249887114
:104E100000BF284670BD00001C00002073656E6452
:104E20002030783535414120746F20736572766586
:104E3000720D0A000400002070B50025FF2400BF99
:104E400043E024492448006800F01EFF0446681C23
:104E5000C5B234B91F484288018820A000F0C0FACA
:104E600034E0052D31D10025012C27D1152226A1B2
:104E70002B480068FFF7FEFD0220FFF789FE294856
:104E800001780078401C274A107003290CDB13229C
:104E900025A123480068FFF7EDFD0720FFF778FE06
:104EA00000202049087011E0152217A11C48006855
:104EB000FFF7E0FD0220FFF76BFE05E016221FA1C1
:104EC00017480068FFF7D6FD00E0BAE700BF2046AC
:104ED00070BD000030000020000000206F6B2070CB
:104EE00072657373696E67204650207375636365DE
:104EF00073732C2069643D253033642C73636F72A7
:104F0000653D25640D0A0000706C73207265706544
:104F10006174207072657373210D0A200000000017
:104F2000100000205202002046502063616E206E67
:104F30006F742066696E64210D0A200077616974C0
:104F4000207072657373696E672046502E2E2E0D89
:104F50000A20000001468879012803D148881430CE
:104F6000488001E0002048804888704770B50446BA
:104F7000FF25002621464FF47A7000F035F80646EA
:104F80002578284670BD000070B50546002600242F
:104F900000200F4908800F480068FEF767FE294689
:104FA0004FF47A7000F082F8044600200849088027
:104FB000084909680874B4F57A7F01DD4FF47A7402
:104FC0002246214604A000F00BFA204670BD0000E6
:104FD000380000201400002069643D307825783DB9
:104FE00025640D0A000000002DE9F84F07468846A9
:104FF00000250026A9461B480468A18AA06800EB8A
:10500000010A28E00A2000F069FAE08A022822D189
:10501000D146A5891448008870B100F0CBF90095FD
:10502000E38A4A4611A0A16800F0DAF9102150463F
:1050300000F002F900F0BEF9002605E019F80600BC
:1050400008F80600701C86B2AE42F7DB002D02DDC8
:105050002846BDE8F88F781E80B20700D2D100BF85
:10506000F7E700001400002038000020696E2028B7
:10507000292F705F75736172742D3E72785F62754F
:10508000663D3025782C646174613D307825782C3C
:1050900072785F73746174653D307825782C6C6527
:1050A0006E3D307825780A0D000000002DE9F04FA4
:1050B0008BB08246884600260027002500200A90F3
:1050C00081468346202102A8FBF745FB3F48046840
:1050D000A18AA06808440190019D01203B4909680C
:1050E00008740020A081E08166E00A2000F0F6F953
:1050F000B4F80C90B4F80EB04E46202102A8FBF78D
:105100002AFBB9F1200F07DAA9EB0B0205EB0B0123
:1051100002A8FBF7B9FA04E01F22294602A8FBF710
:10512000B3FA701E285C0D282ED12948008888B15A
:1051300000F040F90096E38A2A4626A0A16800F014
:105140004FF91021284600F077F800F033F90021DC
:10515000701E2954002704E0E85D08F80700781C59
:1051600087B2B742F8DB4046FBF724FA80B20A90D8
:1051700028A00A9900F034F900201449096808743D
:105180000A980BB0BDE8F08FA089002814DDA08933
:105190001F2807DB00200A9020A00A9900F020F9C0
:1051A0000020EEE7A089E189884205D002A921A06C
:1051B00000F016F9A089E081AAF1010080B25FEA4F
:1051C000000A92D1207400BFDBE700001400002029
:1051D00038000020696E2028292F705F7573617276
:1051E000742D3E72785F6275663D3025782C64615F
:1051F00074613D307825782C72785F7374617465C2
:105200003D307825782C6C656E3D307825780A0D18
:10521000000000002025642000000000CAE4C8EB64
:10522000CCABB6E0D7D6B7FBA3ACB7B5BBD820257F
:1052300064202100257300002DE9FF4105460E463C
:10524000002000900190029003900024002700BFEE
:1052500015E0002000900190029003902A5D0BA1C0
:105260006846FBF75BF86846FBF7EFF987B23A460A
:10527000694608480068FFF7FDFB601C84B2B44231
:10528000E7D300F097F8BDE8FF81000030782530C3
:1052900032782000100000202DE9F04F85B08246C2
:1052A0000F4614460020019002900390049080461F
:1052B00000250090834697FBF4F086B297FBF4F04C
:1052C00004FB10701FFA80F9B9F1000F02DD701CA9
:1052D00086B203E0B9F1000F00D1A14600252AE013
:1052E000701EA84201D1CB4600E0A3464FF0000853
:1052F0001BE00020019002900390049005FB0480C5
:105300001AF800200FA101A8FBF708F801A8FBF785
:105310009CF980B2009001A90C48009A0068FFF740
:10532000A9FB08F101001FFA80F8D845E1DB00F085
:1053300041F8681C85B2B542D2DB304605B0BDE805
:10534000F08F0000307825303278200010000020E7
:105350002DE9FF4105460E46002000900190029085
:1053600003900024002700F025F800BF15E000207E
:1053700000900190029003902A5D0BA16846FAF715
:10538000CDFF6846FBF761F987B23A46694608489F
:105390000068FFF76FFB601C84B2B442E7D300F0F3
:1053A00009F8BDE8FF8100002530327800000000D8
:1053B0001000002008B5002000900D208DF800009E
:1053C0000A208DF8010000208DF8020002226946B3
:1053D00002480068FFF74EFB08BD000010000020E7
:1053E0000FB438B505A800900948009A0499FAF757
:1053F00083FF002000900648FBF727F984B222467D
:10540000034904480068FFF735FB38BC5DF814FB1E
:105410008C0E0020100000202DE9F04105460E46BC
:105420001746FF243A4631462846FDF789FE0446D2
:105430002CB93A46314606A0FFF7D2FF04E03A46BF
:1054400031460CA0FFF7CCFF2046BDE8F0810000FC
:10545000C9BEB3FDD6B8CEC6B3C9B9A62CCEBBD68D
:10546000C369643D25642CB8F6CAFD3D25640D0A68
:1054700000000000C9BEB3FDD6B8CEC6CAA7B0DCD6
:105480002CCEBBD6C369643D25642CB8F6CAFD3D5D
:1054900025640D0A0000000010B56FF00400FEF74F
:1054A000B3FF0A4800680A49B0FBF1F009490870E7
:1054B0000846007800EB4001C1EBC0104FF6FF71C9
:1054C00001EAC0000449088010BD00003C02002031
:1054D00000127A00C6020020C8020020014601B96D
:1054E0007047124A12884A434FF0E0235A61002263
:1054F0009A611A46126942F001021A6100BF4FF028
:10550000E022106900F001021AB100F48032002A92
:10551000F5D04FF0E022126922F001024FF0E023B3
:105520001A6100229A6100BFDAE70000C802002079
:105530000146114A12784A434FF0E0235A61002293
:105540009A611A46126942F001021A6100BF4FF0D7
:10555000E022106900F001021AB100F48032002A42
:10556000F5D04FF0E022126922F001024FF0E02363
:105570001A6100229A617047C60200202DE9F05F8F
:1055800081460F46154698460024FF26B246B3468C
:10559000394626A0FFF724FF4FF400733A464146F0
:1055A0004846FDF717FE044621462CA0FFF718FFDA
:1055B000A346B4F5007F32D1214637A0FFF710FF94
:1055C000B5F57A7F01DD4FF47A7501222946484608
:1055D000FFF722FF00F0FF0ABAF1000F23D129469E
:1055E00035A0FFF7FDFE29463AA0FFF7F9FE2A464F
:1055F00041464846FEF7B2F80646314640A0FFF75E
:10560000EFFE36B929464EA0FFF7EAFE4FF0000B39
:1056100009E03246294650A0FFF7E2FE03E02146AA
:1056200057A0FFF7DDFE2046BDE8F09F446F776E80
:10563000436861722066726F6D206D6375206275BC
:10564000663D3078257820746F202043686172426F
:105650007566666572312E2E2E0D0A00322E616639
:10566000746572207472616E7366657220746F2047
:1056700043686172427566666572312C2050535FD3
:10568000446F776E4368617228292C206C656E31F7
:105690003D2564200D0A0000446F776E43686172F7
:1056A000206F6B2C746F74616C20646F776E206C4C
:1056B000656E3D25640D0A0069643D2564206861BE
:1056C0007320626565642064656C65746564210D92
:1056D0000A00000053746F72652066726F6D20437C
:1056E0006861724275666665723120746F2046503B
:1056F0002069643D2564202E2E2E0D0A0000000036
:10570000332E53746F72652066726F6D204368612B
:10571000724275666665723120746F2046502C2087
:1057200050535F53746F72654368617228292C204F
:10573000656E737572653D2564200D0A00000000DA
:1057400053746F726520746F2046502069643D2544
:1057500064206F6B210D0A0053746F726520746FA3
:105760002046502069643D2564206661696C65644B
:105770002120656E737572653D307825780D0A00BD
:10578000446F776E43686172206661696C65642C52
:10579000746F74616C20646F776E206C656E3D254C
:1057A000640D0A002DE9F04706460C46FF27002548
:1057B000D4F80480D4F80890A37822883046616831
:1057C000FFF7DCFE0546B5F5007F27D1A27830460D
:1057D000A16801F047FED4F80480D4F80880802244
:1057E00009F1080108F10800FAF703FF68B1032086
:1057F000A073E07321882A4611A0FFF7F1FD2188EC
:1058000001223046FFF708FE15E00020A073E07388
:1058100021882A4618A0FFF7E3FD0CE00420A073BE
:10582000E07321882A4622A0FFF7DAFD21880122B1
:105830003046FFF7F1FDE77B3846BDE8F087000012
:105840006D656D636D702829213D3020646F776E22
:1058500043686172206661696C65642121212C2096
:1058600073746F72655F69643D25642C206C656E8E
:10587000323D25640D0A00006D656D636D70282949
:105880003D6F6B2CCFC2D4D8B5BDD6B8CEC6D2C76B
:10589000B3C9B9A62C6F6B2C2073746F72655F69E6
:1058A000643D25642C206C656E323D25640D0A0034
:1058B000CFC2D4D8B5BDD6B8CEC6D2C7CAA7B0DC81
:1058C0002C6661696C65642121212C2073746F72D0
:1058D000655F69643D25642C206C656E323D2564EE
:1058E0000D0A000010B5FFF7D7FD4FF4614001F03D
:1058F000F7FA4FF4E13001F067FB4FF4614001F03B
:10590000D7FB01F04DFC00F03DFEFFF717F94FF417
:10591000A060FDF74BFBFDF78FF810BD10B50A2016
:10592000FEF780FC0620FEF77DFC0020FEF77AFCE7
:105930000C20FEF777FC10BD2DE9F04180460C46A7
:1059400016460025FF27B4F57A7F01DD4FF47A74FF
:10595000214616A0FFF744FD224601214046FDF7EF
:10596000CDFD0746002F19D11BA0FFF739FD3146A9
:105970001EA0FFF735FD324601214046FDF734FFFA
:105980000546B5F5007F04D1294626A0FFF728FD7E
:1059900008E0294629A0FFF723FD03E039462EA0A1
:1059A000FFF71EFD2846BDE8F08100004C6F6164E2
:1059B00020436861722066726F6D204650206964D2
:1059C0003D256420746F2043686172427566666588
:1059D00072312E2E2E0D0A004C6F616420436861D7
:1059E00072206F6B21200D0A0000000055702043CB
:1059F0006861722066726F6D2043686172427566DD
:105A00006665723120746F206D6375206275662043
:105A10006D627566313D30782578202E2E2E0D0A68
:105A20000000000055702043686172206F6B2120D8
:105A300075706C656E3D25640D0A0000557020433D
:105A4000686172206661696C6564212075706C659F
:105A50006E3D25640D0A00004C6F6164204368614F
:105A600072206661696C656421202C656E737572A5
:105A7000653D307825780D0A0000000000BFFFF773
:105A800031FF3220FFF72AFDFFF748FF3220FFF7F2
:105A900025FDFCF7DDFA404800884049088041F6C2
:105AA0001F416320FEF7B6FD01213D48FEF7EDFDE5
:105AB00001F012FD00F0A2F855213A480068FEF707
:105AC000BFFF552137480068FEF7BAFFAA213548C5
:105AD0000068FEF7B5FFAA2132480068FEF7B0FF64
